C51 COMPILER V9.60.0.0   MAIN                                                              09/19/2021 20:52:17 PAGE 1   


C51 COMPILER V9.60.0.0, COMPILATION OF MODULE MAIN
OBJECT MODULE PLACED IN .\Objects\main.obj
COMPILER INVOKED BY: C:\Keil_v5\C51\BIN\C51.EXE main.c ROM(COMPACT) OPTIMIZE(8,SIZE) BROWSE DEBUG OBJECTEXTEND PRINT(.\L
                    -istings\main.lst) TABS(2) OBJECT(.\Objects\main.obj)

line level    source

   1          
   2          // https://www.mikrocontroller.net/articles/Bitmanipulation#Niederwertigstes_gesetztes_Bit_l.C3.B6schen_.2
             -8Standard_C.29
   3          
   4          #include <REG515C.H>
   5          #include "seriell.h"
   6          #include "bitmanipulation.h"
   7          
   8          
   9          /** 
  10           * Vorausdeklaration
  11           */
  12          int zaehleEinsen(char zeichen);
  13          char setzeParitaet(char zeichen, int anzahlEinsen);
  14          char istGerade(int zahl);
  15          void neueZeile();
  16          
  17           
  18          
  19          
  20          /** 
  21           * @function Main-Funktion
  22           */
  23          main()
  24          { 
  25   1        char eingelesenesZeichen, neuesZeichen; // Eingegebene Zeichen, Zeichen nach Paritaetssetzung
  26   1        int einsen; // Anzahl an Einsen beim eingegebenen Zeichen
  27   1        
  28   1        initSeriell();  // Serielle Schnittstelle initialisieren
  29   1        
  30   1        while(1) // Endlosschleife fuer Programmablauf
  31   1        {
  32   2          eingelesenesZeichen = readChar();
  33   2      
  34   2          einsen = zaehleEinsen(eingelesenesZeichen);
  35   2          printChar(einsen +48);   
  36   2          neueZeile();
  37   2          
  38   2          neuesZeichen = setzeParitaet(eingelesenesZeichen, einsen);
  39   2          P5 = neuesZeichen; // In Port 5 laden
  40   2        }       
  41   1      }
  42          
  43          /** 
  44           * @function Zaehlt Anzahl der gesetzten Bits von einem Zeichen
  45           */
  46          int zaehleEinsen(char zeichen)
  47          {
  48   1        int loop, counter, bitindex;
  49   1        //bitindex = 1;
  50   1        counter = 0;
  51   1        
  52   1        for ( loop = 0; loop < 7; loop++ ) // Bit 0 bis 6 ueberpruefen
  53   1        {   
C51 COMPILER V9.60.0.0   MAIN                                                              09/19/2021 20:52:17 PAGE 2   

  54   2          
  55   2          
  56   2          
  57   2          
  58   2          //leseBit(zeichen,loop);
  59   2          
  60   2      //    if (zeichen & bitindex) // Pruefen ob Bitindex gesetzt
  61   2      
  62   2      
  63   2          if ( leseBit(zeichen,loop) == 1 )
  64   2          {
  65   3            counter++; // dann hochzaehlen
  66   3          } 
  67   2            
  68   2          //bitindex *= 2; // Mal 2 rechnen um auf 2,4,8,16... zu kommen
  69   2        } 
  70   1        
  71   1        return counter;
  72   1      }
*** WARNING C280 IN LINE 48 OF main.c: 'bitindex': unreferenced local variable
  73          
  74          /** 
  75           * @function Setzt bei ungerader Anzahl von gesetzten Bits das 8. Bit als Paritaetsbit
  76           */
  77          char setzeParitaet(char zeichen, int anzahlEinsen)
  78          {
  79   1        if (istGerade(anzahlEinsen) == 1)
  80   1        {
  81   2          // Das 8. Bit (Bit 7) soll geloescht werden
  82   2          //zeichen &= ~(1 << 7);
  83   2            zeichen = loescheBit(zeichen, 7);
  84   2        }
  85   1        else // Ungerade Anzahl
  86   1        {
  87   2          //zeichen += 128;   // Nicht so, mit Bitmanipulatiion
  88   2          
  89   2          // Das 8. Bit (Bit 7) soll gesetzt werden
  90   2          //zeichen |= (1 << 7); // zeichen = zeichen | (1 << 7);
  91   2          
  92   2          zeichen = setzeBit(zeichen, 7);
  93   2          
  94   2          
  95   2        }
  96   1         
  97   1        return zeichen;
  98   1      }
  99          
 100          /** 
 101           * @function Prueft ob Zahl gerade ist
 102           */
 103          char istGerade(int zahl)
 104          {
 105   1        if (zahl % 2 == 1) return 0;  
 106   1        else return 1;
 107   1      } 
 108          
 109          
 110          void neueZeile()
 111          {
 112   1        printChar(10); // Line Feed
 113   1        //printChar(9); // Zeilenschub
 114   1        //printChar(32); // Space
C51 COMPILER V9.60.0.0   MAIN                                                              09/19/2021 20:52:17 PAGE 3   

 115   1      }


MODULE INFORMATION:   STATIC OVERLAYABLE
   CODE SIZE        =    179    ----
   CONSTANT SIZE    =   ----    ----
   XDATA SIZE       =   ----    ----
   PDATA SIZE       =   ----    ----
   DATA SIZE        =   ----      11
   IDATA SIZE       =   ----    ----
   BIT SIZE         =   ----    ----
END OF MODULE INFORMATION.


C51 COMPILATION COMPLETE.  1 WARNING(S),  0 ERROR(S)
