BL51 BANKED LINKER/LOCATER V6.22.2.0                                                    09/19/2021  20:56:28  PAGE 1


BL51 BANKED LINKER/LOCATER V6.22.2.0, INVOKED BY:
C:\KEIL_V5\C51\BIN\BL51.EXE .\Objects\STARTUP.obj, .\Objects\main.obj, .\Objects\eingabeAusgabeDemo.obj, .\Objects\portI
>> O.obj, .\Objects\seriell.obj, .\Objects\bitmanipulation.obj TO .\Objects\test PRINT (.\Listings\test.m51) RAMSIZE (25
>> 6)


MEMORY MODEL: SMALL


INPUT MODULES INCLUDED:
  .\Objects\STARTUP.obj (?C_STARTUP)
  .\Objects\main.obj (MAIN)
  .\Objects\eingabeAusgabeDemo.obj (EINGABEAUSGABEDEMO)
  .\Objects\portIO.obj (PORTIO)
  .\Objects\seriell.obj (SERIELL)
  .\Objects\bitmanipulation.obj (BITMANIPULATION)
  C:\KEIL_V5\C51\LIB\C51S.LIB (?C?SIDIV)
  C:\KEIL_V5\C51\LIB\C51S.LIB (?C?UIDIV)


LINK MAP OF MODULE:  .\Objects\test (?C_STARTUP)


            TYPE    BASE      LENGTH    RELOCATION   SEGMENT NAME
            -----------------------------------------------------

            * * * * * * *   D A T A   M E M O R Y   * * * * * * *
            REG     0000H     0008H     ABSOLUTE     "REG BANK 0"
            DATA    0008H     000CH     UNIT         _DATA_GROUP_
            DATA    0014H     0001H     UNIT         ?DT?PORTIO
                    0015H     000BH                  *** GAP ***
            BIT     0020H.0   0000H.1   UNIT         ?BI?PORTIO
                    0020H.1   0000H.7                *** GAP ***
            IDATA   0021H     0001H     UNIT         ?STACK

            * * * * * * *   C O D E   M E M O R Y   * * * * * * *
            CODE    0000H     0003H     ABSOLUTE     
                    0003H     07FDH                  *** GAP ***
            CODE    0800H     008BH     UNIT         ?C?LIB_CODE
            CODE    088BH     003FH     INBLOCK      ?PR?_ZAEHLEEINSEN?MAIN
            CODE    08CAH     0039H     INBLOCK      ?PR?_LESEBIT?BITMANIPULATION
            CODE    0903H     0037H     INBLOCK      ?PR?_SETZEPARITAET?MAIN
            CODE    093AH     0026H     INBLOCK      ?PR?MAIN?MAIN
            CODE    0960H     0026H     INBLOCK      ?PR?_LOESCHEBIT?BITMANIPULATION
            CODE    0986H     0020H     INBLOCK      ?PR?_SETZEBIT?BITMANIPULATION
            CODE    09A6H     0012H     INBLOCK      ?PR?_ISTGERADE?MAIN
            CODE    09B8H     000FH     INBLOCK      ?PR?PORTIO?PORTIO
            CODE    09C7H     000FH     INBLOCK      ?PR?INITSERIELL?SERIELL
            CODE    09D6H     000CH     UNIT         ?C_C51STARTUP
            CODE    09E2H     0009H     INBLOCK      ?PR?EINGABEAUSGABEDEMO?EINGABEAUSGABEDEMO
            CODE    09EBH     0008H     INBLOCK      ?PR?_PRINTCHAR?SERIELL
            CODE    09F3H     0008H     INBLOCK      ?PR?READCHAR?SERIELL
            CODE    09FBH     0005H     INBLOCK      ?PR?NEUEZEILE?MAIN



OVERLAY MAP OF MODULE:   .\Objects\test (?C_STARTUP)

BL51 BANKED LINKER/LOCATER V6.22.2.0                                                  09/19/2021  20:56:28  PAGE 2



SEGMENT                                            DATA_GROUP 
  +--> CALLED SEGMENT                            START    LENGTH
----------------------------------------------------------------
?C_C51STARTUP                                    -----    -----
  +--> ?PR?MAIN?MAIN

?PR?MAIN?MAIN                                    0008H    0003H
  +--> ?PR?INITSERIELL?SERIELL
  +--> ?PR?READCHAR?SERIELL
  +--> ?PR?_ZAEHLEEINSEN?MAIN
  +--> ?PR?_PRINTCHAR?SERIELL
  +--> ?PR?NEUEZEILE?MAIN
  +--> ?PR?_SETZEPARITAET?MAIN

?PR?_ZAEHLEEINSEN?MAIN                           000BH    0007H
  +--> ?PR?_LESEBIT?BITMANIPULATION

?PR?_LESEBIT?BITMANIPULATION                     0012H    0002H

?PR?NEUEZEILE?MAIN                               -----    -----
  +--> ?PR?_PRINTCHAR?SERIELL

?PR?_SETZEPARITAET?MAIN                          000BH    0001H
  +--> ?PR?_ISTGERADE?MAIN
  +--> ?PR?_LOESCHEBIT?BITMANIPULATION
  +--> ?PR?_SETZEBIT?BITMANIPULATION



SYMBOL TABLE OF MODULE:  .\Objects\test (?C_STARTUP)

  VALUE           TYPE          NAME
  ----------------------------------

  -------         MODULE        ?C_STARTUP
  C:09D6H         SEGMENT       ?C_C51STARTUP
  I:0021H         SEGMENT       ?STACK
  C:0000H         PUBLIC        ?C_STARTUP
  D:00E0H         SYMBOL        ACC
  D:00F0H         SYMBOL        B
  D:0083H         SYMBOL        DPH
  D:0082H         SYMBOL        DPL
  N:0000H         SYMBOL        IBPSTACK
  N:0100H         SYMBOL        IBPSTACKTOP
  N:0080H         SYMBOL        IDATALEN
  C:09D9H         SYMBOL        IDATALOOP
  N:0000H         SYMBOL        PBPSTACK
  N:0100H         SYMBOL        PBPSTACKTOP
  N:0000H         SYMBOL        PDATALEN
  N:0000H         SYMBOL        PDATASTART
  N:0000H         SYMBOL        PPAGE
  N:0000H         SYMBOL        PPAGEENABLE
  D:00A0H         SYMBOL        PPAGE_SFR
  D:0081H         SYMBOL        SP
  C:09D6H         SYMBOL        STARTUP1
  N:0000H         SYMBOL        XBPSTACK
BL51 BANKED LINKER/LOCATER V6.22.2.0                                                  09/19/2021  20:56:28  PAGE 3


  N:0000H         SYMBOL        XBPSTACKTOP
  N:0000H         SYMBOL        XDATALEN
  N:0000H         SYMBOL        XDATASTART
  C:0000H         LINE#         126
  C:09D6H         LINE#         133
  C:09D8H         LINE#         134
  C:09D9H         LINE#         135
  C:09DAH         LINE#         136
  C:09DCH         LINE#         185
  C:09DFH         LINE#         196
  -------         ENDMOD        ?C_STARTUP

  -------         MODULE        MAIN
  C:0000H         SYMBOL        _ICE_DUMMY_
  D:0090H         PUBLIC        P1
  D:00B0H         PUBLIC        P3
  D:00E8H         PUBLIC        P4
  D:00F8H         PUBLIC        P5
  D:00A8H         PUBLIC        IEN0
  D:00B8H         PUBLIC        IEN1
  D:00D8H         PUBLIC        ADCON0
  C:09A6H         PUBLIC        _istGerade
  C:093AH         PUBLIC        main
  C:09FBH         PUBLIC        neueZeile
  D:0098H         PUBLIC        SCON
  D:0088H         PUBLIC        TCON
  C:088BH         PUBLIC        _zaehleEinsen
  D:00C8H         PUBLIC        T2CON
  C:0903H         PUBLIC        _setzeParitaet
  D:00D0H         PUBLIC        PSW
  D:00C0H         PUBLIC        IRCON
  -------         PROC          MAIN
  -------         DO            
  D:0008H         SYMBOL        eingelesenesZeichen
  D:0007H         SYMBOL        neuesZeichen
  D:0009H         SYMBOL        einsen
  -------         ENDDO         
  C:093AH         LINE#         23
  C:093AH         LINE#         24
  C:093AH         LINE#         28
  C:093DH         LINE#         30
  C:093DH         LINE#         31
  C:093DH         LINE#         32
  C:0942H         LINE#         34
  C:0949H         LINE#         35
  C:0950H         LINE#         36
  C:0953H         LINE#         38
  C:095CH         LINE#         39
  C:095EH         LINE#         40
  -------         ENDPROC       MAIN
  -------         PROC          _ZAEHLEEINSEN
  D:000BH         SYMBOL        zeichen
  -------         DO            
  D:000CH         SYMBOL        loop
  D:000EH         SYMBOL        counter
  D:0010H         SYMBOL        bitindex
  -------         ENDDO         
BL51 BANKED LINKER/LOCATER V6.22.2.0                                                  09/19/2021  20:56:28  PAGE 4


  C:088BH         LINE#         46
  C:088DH         LINE#         47
  C:088DH         LINE#         50
  C:0892H         LINE#         52
  C:0896H         LINE#         53
  C:0896H         LINE#         63
  C:08AAH         LINE#         64
  C:08AAH         LINE#         65
  C:08B2H         LINE#         66
  C:08B2H         LINE#         69
  C:08C5H         LINE#         71
  C:08C9H         LINE#         72
  -------         ENDPROC       _ZAEHLEEINSEN
  -------         PROC          _SETZEPARITAET
  D:000BH         SYMBOL        zeichen
  D:0004H         SYMBOL        anzahlEinsen
  C:0903H         LINE#         77
  C:0905H         LINE#         78
  C:0905H         LINE#         79
  C:0919H         LINE#         80
  C:0919H         LINE#         83
  C:0927H         LINE#         84
  C:0929H         LINE#         86
  C:0929H         LINE#         92
  C:0937H         LINE#         95
  C:0937H         LINE#         97
  C:0939H         LINE#         98
  -------         ENDPROC       _SETZEPARITAET
  -------         PROC          _ISTGERADE
  D:0006H         SYMBOL        zahl
  C:09A6H         LINE#         103
  C:09A6H         LINE#         104
  C:09A6H         LINE#         105
  C:09B5H         LINE#         106
  C:09B7H         LINE#         107
  -------         ENDPROC       _ISTGERADE
  -------         PROC          NEUEZEILE
  C:09FBH         LINE#         110
  C:09FBH         LINE#         111
  C:09FBH         LINE#         112
  -------         ENDPROC       NEUEZEILE
  -------         ENDMOD        MAIN

  -------         MODULE        EINGABEAUSGABEDEMO
  C:0000H         SYMBOL        _ICE_DUMMY_
  C:09E2H         PUBLIC        eingabeAusgabeDemo
  -------         PROC          EINGABEAUSGABEDEMO
  -------         DO            
  D:0007H         SYMBOL        taste
  -------         ENDDO         
  C:09E2H         LINE#         13
  C:09E2H         LINE#         39
  C:09E5H         LINE#         49
  C:09E8H         LINE#         57
  -------         ENDPROC       EINGABEAUSGABEDEMO
  -------         ENDMOD        EINGABEAUSGABEDEMO

BL51 BANKED LINKER/LOCATER V6.22.2.0                                                  09/19/2021  20:56:28  PAGE 5


  -------         MODULE        PORTIO
  C:0000H         SYMBOL        _ICE_DUMMY_
  D:0090H         PUBLIC        P1
  D:00B0H         PUBLIC        P3
  D:00E8H         PUBLIC        P4
  B:0090H.0       PUBLIC        meinLsbVonP1
  D:00A8H         PUBLIC        IEN0
  D:00B8H         PUBLIC        IEN1
  D:00D8H         PUBLIC        ADCON0
  D:0098H         PUBLIC        SCON
  D:0088H         PUBLIC        TCON
  D:0090H         PUBLIC        meinPort
  D:0014H         PUBLIC        gelesenesByte
  C:09B8H         PUBLIC        portIO
  B:0020H.0       PUBLIC        gelesenesBit
  D:00C8H         PUBLIC        T2CON
  D:00D0H         PUBLIC        PSW
  D:00C0H         PUBLIC        IRCON
  -------         PROC          PORTIO
  C:09B8H         LINE#         114
  C:09B8H         LINE#         116
  C:09BBH         LINE#         119
  C:09BFH         LINE#         123
  C:09C2H         LINE#         126
  C:09C4H         LINE#         129
  C:09C6H         LINE#         134
  -------         ENDPROC       PORTIO
  -------         ENDMOD        PORTIO

  -------         MODULE        SERIELL
  C:0000H         SYMBOL        _ICE_DUMMY_
  D:00BAH         PUBLIC        SRELH
  D:0090H         PUBLIC        P1
  D:00B0H         PUBLIC        P3
  D:00AAH         PUBLIC        SRELL
  D:00E8H         PUBLIC        P4
  B:00D8H.7       PUBLIC        BD
  C:09C7H         PUBLIC        initSeriell
  D:00A8H         PUBLIC        IEN0
  D:00B8H         PUBLIC        IEN1
  D:00D8H         PUBLIC        ADCON0
  B:0098H.0       PUBLIC        RI
  B:0098H.1       PUBLIC        TI
  C:09F3H         PUBLIC        readChar
  C:09EBH         PUBLIC        _printChar
  D:0087H         PUBLIC        PCON
  D:0099H         PUBLIC        SBUF
  D:0098H         PUBLIC        SCON
  D:0088H         PUBLIC        TCON
  D:00C8H         PUBLIC        T2CON
  D:00D0H         PUBLIC        PSW
  D:00C0H         PUBLIC        IRCON
  -------         PROC          INITSERIELL
  C:09C7H         LINE#         29
  C:09C7H         LINE#         41
  C:09CAH         LINE#         43
  C:09CDH         LINE#         45
BL51 BANKED LINKER/LOCATER V6.22.2.0                                                  09/19/2021  20:56:28  PAGE 6


  C:09D0H         LINE#         47
  C:09D2H         LINE#         60
  C:09D5H         LINE#         63
  -------         ENDPROC       INITSERIELL
  -------         PROC          _PRINTCHAR
  D:0007H         SYMBOL        character
  C:09EBH         LINE#         65
  C:09EBH         LINE#         67
  C:09EBH         LINE#         70
  C:09EEH         LINE#         72
  C:09F0H         LINE#         75
  C:09F2H         LINE#         78
  -------         ENDPROC       _PRINTCHAR
  -------         PROC          READCHAR
  C:09F3H         LINE#         80
  C:09F3H         LINE#         83
  C:09F6H         LINE#         85
  C:09F8H         LINE#         87
  C:09FAH         LINE#         88
  -------         ENDPROC       READCHAR
  -------         ENDMOD        SERIELL

  -------         MODULE        BITMANIPULATION
  C:0000H         SYMBOL        _ICE_DUMMY_
  C:0960H         PUBLIC        _loescheBit
  C:08CAH         PUBLIC        _leseBit
  C:0986H         PUBLIC        _setzeBit
  -------         PROC          _SETZEBIT
  D:0002H         SYMBOL        value
  D:0004H         SYMBOL        bitIndex
  C:0986H         LINE#         5
  C:098AH         LINE#         6
  C:098AH         LINE#         7
  C:09A1H         LINE#         8
  C:09A5H         LINE#         9
  -------         ENDPROC       _SETZEBIT
  -------         PROC          _LOESCHEBIT
  D:0002H         SYMBOL        value
  D:0004H         SYMBOL        bitIndex
  C:0960H         LINE#         12
  C:0964H         LINE#         13
  C:0964H         LINE#         14
  C:0981H         LINE#         15
  C:0985H         LINE#         16
  -------         ENDPROC       _LOESCHEBIT
  -------         PROC          _LESEBIT
  D:0012H         SYMBOL        value
  D:0004H         SYMBOL        bitIndex
  -------         DO            
  D:0006H         SYMBOL        bitWert
  D:0002H         SYMBOL        i
  -------         ENDDO         
  C:08CAH         LINE#         18
  C:08CEH         LINE#         19
  C:08D2H         LINE#         22
  C:08E2H         LINE#         23
  C:08E9H         LINE#         24
BL51 BANKED LINKER/LOCATER V6.22.2.0                                                  09/19/2021  20:56:28  PAGE 7


  C:08F0H         LINE#         26
  C:08FAH         LINE#         27
  C:08FFH         LINE#         28
  C:08FFH         LINE#         29
  C:08FFH         LINE#         30
  C:0902H         LINE#         31
  C:0902H         LINE#         33
  -------         ENDPROC       _LESEBIT
  -------         ENDMOD        BITMANIPULATION

  -------         MODULE        ?C?SIDIV
  C:0800H         PUBLIC        ?C?SIDIV
  -------         ENDMOD        ?C?SIDIV

  -------         MODULE        ?C?UIDIV
  C:0836H         PUBLIC        ?C?UIDIV
  -------         ENDMOD        ?C?UIDIV

*** WARNING L16: UNCALLED SEGMENT, IGNORED FOR OVERLAY PROCESS
    SEGMENT: ?PR?EINGABEAUSGABEDEMO?EINGABEAUSGABEDEMO

*** WARNING L16: UNCALLED SEGMENT, IGNORED FOR OVERLAY PROCESS
    SEGMENT: ?PR?PORTIO?PORTIO

******************************************************************************
* RESTRICTED VERSION WITH 0800H BYTE CODE SIZE LIMIT; USED: 0178H BYTE (18%) *
******************************************************************************

Program Size: data=22.1 xdata=0 code=515
LINK/LOCATE RUN COMPLETE.  2 WARNING(S),  0 ERROR(S)
